:03000000020E5A93
:0C0E5A00787FE4F6D8FD758173020EA1CC
:100EE6002D3230004348494E48002047494F203AAA
:100EF600004348494E48204E474159203A0043484E
:100F0600494E4820544855203A00443A0044454E3C
:100F16003A202000515541543A20002D2D2D2D56B2
:100F26004F4C544147452D2D2D2D00212121204286
:100F360041542052454C4159203120212121002184
:100F46002121204241542052454C41592032202132
:100F56002121004361692052454C4159203100430B
:0B0F660041492052454C415920320007
:10103300016714015F2801632D0168230160190111
:04104300642DC10354
:081196007FC87E007D007C0093
:10119E008F198E188D178C16781674FF1210B4ECEA
:1011AE004D4E4F60195389F0438901758CFC758A39
:0F11BE0067C28DD28C308DFDC28CC28D80DA223B
:100DA5007FC6121367E4FF1213231212967FC31234
:100DB50013677F011213231212967F3A1213757F60
:100DC500C01213677F021213231212967F3A121371
:100DD500757F801213677F03121323EF75F003A449
:100DE5002427F8860308E6FA08E6F91211DD7F2CB8
:100DF5001213757F861213677F041213231212963E
:100E05007F2D1213757F051213231212967BFF7A1D
:100E15000E79E61211DD7F06121323121296057361
:100E2500E57370020572D39414E5729400400812BC
:100E35001117E4F572F5737FC9121367AF701212BB
:100E45002A7FDF1213757F43121375AF7112122AB1
:050E55007F250213756A
:0412FD00EF543FFF6C
:0F130100EFC4540F75F00AA4FEEF540F2EFF2215
:10131000EF75F00A84C454F0FEEF75F00A84EE25F0
:03132000F0FF22B9
:100006007F2C7E0112119A7F021213231212FD8F8A
:100016000FE50FD3941740197F141211987F02121F
:1000260013231212FD8F0FE50FD394174003E4F547
:100036000F7F011213231213018F0EE50ED3943B8B
:1000460040197F141211987F011213231213018F86
:100056000EE50ED3943B4003E4F50EE4FF121323A2
:10006600EF547FFF1213018F0DE50DD3943B401D16
:100076007F14121198E4FF121323EF547FFF12131B
:10008600018F0DE50DD3943B4003E4F50D7F04127B
:1000960013231213018F11E511D3941F5004E51198
:1000A600701D7F141211987F041213231213018FEF
:1000B60011E511D3941F5004E51170037511017FEA
:1000C600051213231213018F12E512D3940C500458
:1000D600E512701D7F141211987F05121323121357
:1000E600018F12E512D3940C5004E51270037512B9
:1000F600017F061213231213018F13E513D39463A2
:1001060040197F141211987F061213231213018FC0
:1001160013E513D3946340037513187F0312132357
:100126001213018F10E510D394075004E5107003E5
:100136007510017F011213677BFF7A0E79EA12119F
:10014600DD7BFF7A0E79F01211DD7F0E1213677FC9
:10015600C4121367AF0F12122A7F3A121375AF0E2D
:1001660012122A7F3A121375AF0D12122A7FC51288
:10017600136730B2FD7FC87E00804D30B10630B0C7
:100186000320B2F720B121050FE50FC394184003F1
:10019600E4F50F7FC4121367AF0F12122A7FC51240
:1001A60013677FF47E01802020B022150FE50FB47F
:1001B600FF03750F177FC4121367AF0F12122A7F42
:1001C600C51213677FF47E0112119A80AE30B2FD1C
:1001D6001211967FC812136730B10630B00320B2F1
:1001E600F720B10E050EE50EC3943C4012E4F50E61
:1001F600800D20B022150EE50EB4FF03750E3B7F71
:10020600C7121367AF0E12122A7F101213677FF4FC
:100216007E0112119A80C130B2FD1211967FCB1267
:10022600136730B10630B00320B2F720B10E050DCA
:10023600E50DC3943C4012E4F50D800D20B0221567
:100246000DE50DB4FF03750D3B7FCA121367AF0DA5
:1002560012122A7FCB1213677FF47E0112119A8045
:10026600C130B2FD1211967F011213677BFF7A0E21
:1002760079F71211DD7FC4121367AF1112122A7FAC
:100286002D121375AF1212122A7BFF7A0E79E6121F
:1002960011DDAF1312122A7FC512136730B1063073
:1002A600B00320B2F720B10E0511E511C39420402A
:1002B6000E751101800920B01ED5110375111F7F1F
:1002C600C4121367AF1112122A7F101213677F2C04
:1002D6007E0112119A80C530B2FD1211967FC812A6
:1002E600136730B10630B00320B2F720B10E051205
:1002F600E512C3940D400E751201800920B01ED57B
:10030600120375120C7FC7121367AF1212122A7FDF
:10031600101213677F2C7E0112119A80C530B2FD30
:100326001211967FCD12136730B10630B00320B29A
:10033600F720B10E0513E513C394644012E4F513D8
:10034600800D20B0221513E513B4FF037513637FE8
:10035600CC121367AF1312122A7FCD1213677F2CAC
:100366007E0112119A80C130B2FD1211967F0112E0
:1003760013677BFF7A0F79041211DD7FC4121367AE
:10038600E51075F003A42427F8860308E6FA08E6C4
:10039600F91211DD30B10630B00320B2F720B10EEC
:1003A6000510E510C39408400E751001800920B0B1
:1003B60028D510037510077FC4121367E51075F072
:1003C60003A42427F8860308E6FA08E6F91211DDE5
:1003D6007F2C7E0112119A80BB30B2FD1211967FDE
:1003E600011213677F0C121367AF0D1213108F21C2
:1003F600AF0E1213108F22AF0F1213108F23AF10F0
:100406001213108F24AF111213108F25AF1212136F
:10041600108F26AF131213108F27E4F52875296362
:080426001212D37F01021367DB
:0806D9008F0D8B0E8A0F8910B2
:1006E100121196AF0D1213231213018F11E50D0490
:1006F100FF1213231213018F12E50D2402FF1213AF
:10070100231213018F13E50D2403FF121323121378
:10071100018F14E50D2404FF1213231213018F1509
:10072100E511D394174003E4F511E512D3943B404E
:1007310003E4F512E513D3941F4003E4F513E51424
:10074100D3940C4003E4F514E515D394014003E47C
:10075100F5157F01121367AB0EAA0FA9101211DD57
:100761007FC0121367AF1312122A7F2F121375AFB6
:100771001412122A7F20121375AF1112122A7F3A16
:10078100121375AF1212122A7BFF7A0F7910121110
:10079100DDAF1512122A7F0E1213677FC71213677E
:1007A10030B2FD7FC87E00804D30B10630B00320ED
:1007B100B2F720B1210511E511C394184003E4F506
:1007C100117FC6121367AF1112122A7FC712136766
:1007D1007F2C7E01802020B0221511E511B4FF038A
:1007E1007511177FC6121367AF1112122A7FC71234
:1007F10013677F2C7E0112119A80AE30B2FD121167
:10080100967FCA12136730B10630B00320B2F720C9
:10081100B10E0512E512C3943C4012E4F512800DAD
:1008210020B0221512E512B4FF0375123B7FC912E5
:100831001367AF1212122A7FCA1213677F2C7E012F
:1008410012119A80C130B2FD1211967FC112136745
:1008510030B10630B00320B2F720B10E0513E51315
:10086100C394204012E4F513800D20B0221513E546
:1008710013B4FF0375131F7FC0121367AF13121256
:100881002A7FC11213677F2C7E0112119A80C13019
:10089100B2FD1211967FC412136730B10630B00356
:1008A10020B2F720B10E0514E514C3940D4012E4F3
:1008B100F514800D20B0221514E514B4FF0375144E
:1008C1000C7FC3121367AF1412122A7FC41213676D
:1008D1007F2C7E0112119A80C130B2FD1211967FD8
:1008E100CD12136730B10630B00320B2F720B10C3E
:1008F100E51570047F0180117F00800D20B024E593
:100901001570047F0180027F008F157FCD12136760
:10091100AF1512122A7FCE1213677F2C7E0112119E
:100921009A80C130B2FD1211967F0C121367AF117C
:10093100121310AD07AF0D121336AF12121310AD13
:1009410007E50D04FF121336AF13121310AD07E5BF
:100951000D2402FF121336AF14121310AD07E50D6B
:100961002403FF121336AF15121310AD07E50D2442
:0A09710004FF1213367F0102136722
:100BDD00750E32C206AF0E150EEF602D12139A7FF1
:100BED00D01212077F0812120712139A7FD1121218
:100BFD00071212768F0D1213A5E50DB46304D206FC
:100C0D0080077F0A12119880CC300603020CDC7528
:100C1D0021507522597523097524047525047526EF
:100C2D0005752711E4F5287529631212D3E4FF1217
:100C3D001310AD077F09121336E4FF121310AD0721
:100C4D007F0A121336E4FF121310AD077F0B121338
:100C5D0036E4FF121310AD077F0C121336E4FF12AA
:100C6D001310AD077F0D121336E4FF121310AD07ED
:100C7D007F0E121336E4FF121310AD077F0F121300
:100C8D0036E4FF121310AD077F10121336E4FF1276
:100C9D001310AD077F11121336E4FF121310AD07B9
:100CAD007F12121336AD677F13121336AD5F7F14AB
:100CBD00121336AD637F15121336AD687F161213FE
:100CCD0036AD607F17121336AD647F181213367F61
:100CDD00091213231213018F697F0A1213231213A2
:100CED00018F6B7F0B1213231213018F657F0C1273
:100CFD0013231213018F5D7F0D1213231213018F16
:100D0D00617F0E1213231213018F6A7F0F121323AB
:100D1D001213018F6C7F101213231213018F667F34
:100D2D00111213231213018F5E7F1212132312134C
:100D3D00018F62E569D394174003E4F569E56BD340
:100D4D00943C4003E4F56BE565D394204003E4F552
:100D5D0065E55DD3940C4003E4F55DE561D3940145
:100D6D004003E4F561E56AD394174003E4F56AE5C1
:100D7D006CD3943C4003E4F56CE566D394204003BA
:100D8D00E4F566E55ED3940C4003E4F55EE562D3CD
:070D9D0094014003E4F5623C
:010DA400222C
:1012B500E4F50DF50EAF0E121323050EE50E7002C3
:0D12C500050DD39406E50D6480948040E88B
:0112D20022F9
:030003000213AE37
:0313AE00D2033235
:100F710030076AE570D395634008D293C200C2027C
:100F81008027200224E570C39567501220001AC201
:100F910093D200D2927F64121198C292800BE570B5
:100FA100D3955F4004D293C200E570D395644007A6
:100FB100C294D201C20422200423E570D395684073
:100FC10011200119C294D201D2927F64121198C2E8
:0E0FD1009222E570C395605004D294C20122B2
:02042E008F0D30
:100430001213238F67E50D04FF1213238F5FE50D61
:100440002402FF1213238F63E50D2403FF121323ED
:100450008F68E50D2404FF1213238F60E50D24053A
:10046000FF1213238F647F011213677F80121367BB
:100470007BFF7A0F79131211DDAF6712122A7F3AD0
:10048000121375AF5F12122A7F3A121375AF6312FF
:10049000122A7FC01213677BFF7A0F791A1211DDBF
:1004A000AF6812122A7F3A121375AF6012122A7FB8
:1004B0003A121375AF6412122A30B2FD1211967FF0
:1004C0000E1213677F8712136730B10630B0032016
:1004D000B2F77F1412119820B10E0567E567D39427
:1004E000644014E4F567800F20B0201567E567D3FA
:1004F000940050037567647F86121367AF6712120A
:100500002A7F8712136712119680BE30B2FD121136
:10051000967F8A12136730B10630B00320B2F77F9E
:100520001412119820B10E055FE55FD39464401456
:10053000E4F55F800F20B020155FE55FD394005095
:1005400003755F3C7F89121367AF5F12122A7F8A9F
:1005500012136712119680BE30B2FD1211967F8D74
:1005600012136730B10630B00320B2F77F141211B6
:100570009820B10E0563E563D394644014E4F563F9
:10058000800F20B0201563E563D39400500375639A
:10059000647F8C121367AF6312122A7F8D12136768
:1005A00012119680BE30B2FD1211967FC7121367EA
:1005B00030B10630B00320B2F77F1412119820B189
:1005C0000E0568E568D394644014E4F568800F2054
:1005D000B0201568E568D3940050037568647FC641
:1005E000121367AF6812122A7FC71213671211968F
:1005F00080BE30B2FD1211967FCA12136730B10669
:1006000030B00320B2F77F1412119820B10E0560AC
:10061000E560D394644014756064800F20B02015A9
:1006200060E560D3940050037560647FC91213675E
:10063000AF6012122A7FCA12136712119680BE3061
:10064000B2FD1211967FCD12136730B10630B003A0
:1006500020B2F77F1412119820B10E0564E564D31F
:1006600094644014E4F564800F20B0201564E564C0
:10067000D3940050037564647FCC121367AF641287
:10068000122A7FCD12136712119680BE30B2FD126E
:1006900011967F011213677F0C121367AD67AF0DC0
:1006A000121336E50D04FFAD5F121336E50D24027B
:1006B000FFAD63121336E50D2403FFAD6812133648
:1006C000E50D2404FFAD60121336E50D2405FFADE2
:0906D000641213367F0102136766
:10097B00121196D291E4FBC2907F02121198D29081
:10098B007F021211980BBB09EEC290C292D293D286
:10099B0094C200C2011212E97F011213677F801209
:1009AB0013677FC01213677BFF7A0F79211211DD5A
:1009BB007FDC7E0512119A7F01121367120BDD7516
:1009CB00A8811212B51212B5120DA5121196E4FFE1
:1009DB00121323EF547FFF1213018F087F011213A1
:1009EB00231213018F097F021213231212FD8F0A98
:1009FB007F041213231213018F0B7F051213231283
:100A0B0013018F0CE50A65697070E509656B706AF7
:100A1B00C205E55D7008E5657004D2058026E55DCD
:100A2B007009E565B50B1DD2058019E5657009E503
:100A3B000CB55D10D205800CE50BB56507E50CB563
:100A4B005D02D205300533E508702FE56164017056
:100A5B00297F011213677F801213677BFF7A0F794F
:100A6B00311211DDC293D200D202D2927F641211E5
:0A0A7B0098C2927FE87E0312119AE0
:0C0A8500E50A656A7070E509656C706A2E
:100A9100C205E55E7008E5667004D2058026E55E54
:100AA1007009E566B50B1DD2058019E5667009E58B
:100AB1000CB55E10D205800CE50BB56607E50CB5EB
:100AC1005E02D205300533E508702FE562640170DE
:100AD100297F011213677F801213677BFF7A0F79D9
:100AE100451211DDC294D201D204D2927F64121157
:0A0AF10098C2927FE87E0312119A6A
:100AFB0030030ED2927F64121198C292120006C27A
:100B0B000320B14D20B04A7FE87E0312119A20B129
:100B1B004020B03D20B0047F0180027F0020B00454
:100B2B007E0180027E00EE5F70EAD2927F64FEFD52
:100B3B00FC12119EC2927BFF7A0F79597F09120624
:100B4B00D97BFF7A0F79657F0E1206D9120BDDC2A6
:100B5B00032096207F14121198209618D2927F644E
:100B6B00121198C2927F1312042EC2037F0112132B
:100B7B00673096FD20B3297F3212119830B3FD20D8
:100B8B000011C293D200C202D2927F64121198C29A
:100B9B0092800DD293C200E570C395675002D202CA
:100BAB0020B4297F3212119830B4FD200111C29468
:100BBB00D201C204D2927F64121198C292800DD2DC
:100BCB0094C201E570D395684002D204120F7102F2
:020BDB0009D03F
:0610470002720000C10767
:0B138F00000000000000000000002231
:0E135800E4FFFE0FBF00010EBE2EF8BFE0F551
:011366002264
:10125600E4FDFCC3ED9FEC9E5015E4FBFA0BBB00CE
:0F126600010AEB64724A70F50DBD00010C80E4C3
:011275002256
:0C138300C2957F147E00121256D29522F3
:1010D200E4FFFE3095100FEF70010ED394D0EE9422
:1010E2000740F07F0022E4FEFF2095100FEF700111
:1010F2000ED394D0EE940740F07F0022E4FEFF303E
:1011020095100FEF70010ED394D0EE940740F07F4C
:0411120000227F0137
:0111160022B6
:100FDF00E4FFFEE4FDFC2095100DED70010CD394A1
:100FEF00D0EC940740F07F002212138F12138F1250
:100FFF00138F12138F309527C374079EFDF874015A
:10100F00088002C333D8FC4207E4FCFD3095100D75
:10101F00ED70010CD394D0EC940740F07F00220EBA
:03102F00BE08B048
:01103200229B
:10111700C2AF1213831210D2EF602C120FDF8F7140
:10112700120FDF8F6F120FDF8F70120FDF8F6E12AC
:101137000FDF8F6DE571256F2570256EB56D04D2B4
:1011470007800BC2078007C207E4F570F56ED2AFC0
:011157002275
:10134800D2A7C2B7D2B630A706C2B5D2B580F722A7
:0E1367001213488FA0C2B7C2B6D2B5C2B522CB
:1012E9007F381213677F0C1213677F011213677F10
:0412F900060213676F
:0E1375001213488FA0D2B7C2B6D2B5C2B522AD
:1011CD00FF75F003A4243FF8860308E6FA08E6F954
:0611DD008B168A17891829
:1011E300E4FEAB16AA17A9188E8275830012108528
:0911F300FF60061213750E80E97D
:0111FC0022D0
:02122A00AD070E
:10122C00EDD3946340027D63ED75F00A841211CD09
:10123C00ED75F00A84AFF0EF75F003A4243FF88647
:0A124C000308E6FA08E6F90211DDD6
:02129600AD07A2
:10129800EDC4540F1211CDED540FFF75F003A424C3
:0D12A8003FF8860308E6FA08E6F90211DDBA
:1011580030003100320033003400350036003700EB
:1011680038003900434E68617400546875203200B5
:10117800546875203300546875203400546875200D
:0E118800350054687520360054687520370015
:10104D001E3FFF1158FF115AFF115CFF115EFF117A
:10105D0060FF1162FF1164FF1166FF1168FF116AD5
:10106D00152AFF116CFF1172FF1178FF117EFF1110
:07107D0084FF118AFF1190AE
:0B139A00D290D2910000C291C29022BC
:0913A500C291D2900000D2912205
:0A11FD0012139A7FD0121207AF05FB
:10120700E4FEEF30E703D38001C39291D290000050
:10121700C290EF25E0FF0EBE08E8D291D290000001
:02122700C29073
:0112290022A2
:10127600E4FFD291FED290EF25E0FF3091034307C1
:0F12860001C2900EBE08EED291D29000C290002D
:011295002236
:02132300AD0714
:101325001211FD12139A7FD11212071212760213AF
:01133500A512
:10133600AC0712139A7FD0121207AF0412120202E0
:0213460013A5ED
:1012D300E4FD1211FD74212DF8E6FF12120712131B
:0512E300A50DBD09EDA1
:0112E80022E3
:100E660002097BE493A3F8E493A34003F68001F21E
:100E760008DFF48029E493A3F85407240CC8C3338D
:100E8600C4540F4420C8834004F456800146F6DF5C
:100E9600E4800B0102040810204080901033E47EA9
:100EA600019360BCA3FF543F30E509541FFEE49351
:100EB600A360010ECF54C025E060A840B8E493A318
:100EC600FAE493A3F8E493A3C8C582C8CAC583CA43
:100ED600F0A3C8C582C8CAC583CADFE9DEE780BEFB
:01108400006B
:10108500BB010CE58229F582E5833AF583E0225020
:1010950006E92582F8E622BBFE06E92582F8E2226A
:0D10A500E58229F582E5833AF583E4932284
:1010B2007401FF3395E0FEFDFC080808E6CF2FF629
:1010C20018E6CE3EF618E6CD3DF618E6CC3CF62202
:00000001FF
